:020000040000FA
:100000000C94ED170C94B2200C948A200C941518C3
:100010000C9415180C9415180C9415180C941518AC
:100020000C9415180C9415180C9415180C9415189C
:100030000C9415180C9415180C9415180C9415188C
:100040000C94211F0C9415180C94EF1E0C94C91ECF
:100050000C9415180C9415180C9415180C9415186C
:100060000C946B1F0C94151800000000240027004E
:100070002A0000000000250028002B0000000008D6
:10008000000201000003040700000000000000005F
:10009000EC021C064C097C0CAC0F000000000000B8
:1000A0000000000000000000000000000000000050
:1000B0000000000000000000000000000000000040
:1000C0000000000000000000000000000000000030
:1000D0000000000000000000000000000000000020
:1000E0000000000000000000000000000000000010
:1000F0000000000000000000000000000000000000
:100100000000000000000000000000002101ED01DF
:10011000B90285030000000000000000000000009C
:1001200000000000000000000000000000000000CF
:1001300000000000000000000000000000000000BF
:1001400000000000000000000000000000000000AF
:10015000000000000000000000000000000000009F
:10016000000000000000000000000000000000008F
:10017000000000000000000000000000000000007F
:10018000000000000000A802D8050809380C680F1C
:10019000000000000000000000000000000000005F
:1001A000000000000000000000000000000000004F
:1001B000000000000000000000000000000000003F
:1001C000000000000000000000000000000000002F
:1001D000000000000000000000000000000000001F
:1001E000000000000000000000000000000000000F
:1001F00000000000000000000000000000000000FF
:1002000000001001DC01A8027403000000000000DF
:1002100000000000000000000000000000000000DE
:1002200000000000000000000000000000000000CE
:1002300000000000000000000000000000000000BE
:1002400000000000000000000000000000000000AE
:10025000000000000000000000000000000000009E
:10026000000000000000000000000000000000008E
:10027000000000000000000000000000640294057F
:10028000C408F40B240F0000000000000000000070
:10029000000000000000000000000000000000005E
:1002A000000000000000000000000000000000004E
:1002B000000000000000000000000000000000003E
:1002C000000000000000000000000000000000002E
:1002D000000000000000000000000000000000001E
:1002E000000000000000000000000000000000000E
:1002F0000000000000000000FF00CB019702430057
:1003000000000000000000000000000000000000ED
:1003100000000000000000000000000000000000DD
:1003200000000000000000000000000000000000CD
:1003300000000000000000000000000000000000BD
:1003400000000000000000000000000000000000AD
:10035000000000000000000000000000000000009D
:10036000000000000000000000000000000000008D
:100370000000200250058008B00BE00E00000000D5
:10038000000000000000000000000000000000006D
:10039000000000000000000000000000000000005D
:1003A000000000000000000000000000000000004D
:1003B000000000000000000000000000000000003D
:1003C000000000000000000000000000000000002D
:1003D000000000000000000000000000000000001D
:1003E0000000000000000000000000000000EE001F
:1003F000BA01860252030000000000000000000065
:1004000000000000000000000000000000000000EC
:1004100000000000000000000000000000000000DC
:1004200000000000000000000000000000000000CC
:1004300000000000000000000000000000000000BC
:1004400000000000000000000000000000000000AC
:10045000000000000000000000000000000000009C
:100460000000000000000000DC010C053C086C0BE3
:100470009C0E0000000000000000000000000000D2
:10048000000000000000000000000000000000006C
:10049000000000000000000000000000000000005C
:1004A000000000000000000000000000000000004C
:1004B000000000000000000000000000000000003C
:1004C000000000000000000000000000000000002C
:1004D000000000000000000000000000000000001C
:1004E00000000000DD00A9017502410300000000CA
:1004F00000000000000000000000000000000000FC
:1005000000000000000000000000000000000000EB
:1005100000000000000000000000000000000000DB
:1005200000000000000000000000000000000000CB
:1005300000000000000000000000000000000000BB
:1005400000000000000000000000000000000000AB
:100550000000000000000000000000000000980102
:10056000C804F807280B580E000000000000000027
:10057000000000000000000000000000000000007B
:10058000000000000000000000000000000000006B
:10059000000000000000000000000000000000005B
:1005A000000000000000000000000000000000004B
:1005B000000000000000000000000000000000003B
:1005C000000000000000000000000000000000002B
:1005D00000000000000000000000CC009801640250
:1005E00030030000000000000000000000000000D8
:1005F00000000000000000000000000000000000FB
:1006000000000000000000000000000000000000EA
:1006100000000000000000000000000000000000DA
:1006200000000000000000000000000000000000CA
:1006300000000000000000000000000000000000BA
:1006400000000000000000000000000000000000AA
:100650000000000054018404B407E40A140E0000F2
:10066000000000000000000000000000000000008A
:10067000000000000000000000000000000000007A
:10068000000000000000000000000000000000006A
:10069000000000000000000000000000000000005A
:1006A000000000000000000000000000000000004A
:1006B000000000000000000000000000000000003A
:1006C000000000000000000000000000000000002A
:1006D000BB00870153021F03000000000000000060
:1006E000000000000000000000000000000000000A
:1006F00000000000000000000000000000000000FA
:1007000000000000000000000000000000000000E9
:1007100000000000000000000000000000000000D9
:1007200000000000000000000000000000000000C9
:1007300000000000000000000000000000000000B9
:1007400000000000000000000000100140047007DD
:10075000A00AD00D00000000000000000000000012
:100760000000000000000000000000000000000089
:100770000000000000000000000000000000000079
:100780000000000000000000000000000000000069
:100790000000000000000000000000000000000059
:1007A0000000000000000000000000000000000049
:1007B0000000000000000000000000000000000039
:1007C000000000000000AA00760142020E030000B3
:1007D0000000000000000000000000000000000019
:1007E0000000000000000000000000000000000009
:1007F00000000000000000000000000000000000F9
:1008000000000000000000000000000000000000E8
:1008100000000000000000000000000000000000D8
:1008200000000000000000000000000000000000C8
:1008300000000000000000000000000000000000B8
:10084000CC00FC032C075C0A8C0D000000000000AB
:100850000000000000000000000000000000000098
:100860000000000000000000000000000000000088
:100870000000000000000000000000000000000078
:100880000000000000000000000000000000000068
:100890000000000000000000000000000000000058
:1008A0000000000000000000000000000000000048
:1008B0000000000000000000000000009900650139
:1008C0003102FD02000000000000000000000000F6
:1008D0000000000000000000000000000000000018
:1008E0000000000000000000000000000000000008
:1008F00000000000000000000000000000000000F8
:1009000000000000000000000000000000000000E7
:1009100000000000000000000000000000000000D7
:1009200000000000000000000000000000000000C7
:100930000000000000008800B803E806180A480D0F
:1009400000000000000000000000000000000000A7
:100950000000000000000000000000000000000097
:100960000000000000000000000000000000000087
:100970000000000000000000000000000000000077
:100980000000000000000000000000000000000067
:100990000000000000000000000000000000000057
:1009A0000000000000000000000000000000000047
:1009B0000000880054012002EC020000000000004A
:1009C0000000000000000000000000000000000027
:1009D0000000000000000000000000000000000017
:1009E0000000000000000000000000000000000007
:1009F00000000000000000000000000000000000F7
:100A000000000000000000000000000000000000E6
:100A100000000000000000000000000000000000D6
:100A2000000000000000000000000000440074030B
:100A3000A406D409040D000000000000000000001E
:100A400000000000000000000000000000000000A6
:100A50000000000000000000000000000000000096
:100A60000000000000000000000000000000000086
:100A70000000000000000000000000000000000076
:100A80000000000000000000000000000000000066
:100A90000000000000000000000000000000000056
:100AA0000000000000000000770043010F02DB029D
:100AB0000000000000000000000000000000000036
:100AC0000000000000000000000000000000000026
:100AD0000000000000000000000000000000000016
:100AE0000000000000000000000000000000000006
:100AF00000000000000000000000000000000000F6
:100B000000000000000000000000000000000000E5
:100B100000000000000000000000000000000000D5
:100B200000000000300360069009C00CF00F0000C8
:100B300000000000000000000000000000000000B5
:100B400000000000000000000000000000000000A5
:100B50000000000000000000000000000000000095
:100B60000000000000000000000000000000000085
:100B70000000000000000000000000000000000075
:100B80000000000000000000000000000000000065
:100B900000000000000000000000000000006600EF
:100BA0003201FE01CA0296030000000000000000AE
:100BB0000000000000000000000000000000000035
:100BC0000000000000000000000000000000000025
:100BD0000000000000000000000000000000000015
:100BE0000000000000000000000000000000000005
:100BF00000000000000000000000000000000000F5
:100C000000000000000000000000000000000000E4
:100C100000000000000000004400CC009801200209
:100C2000A802EC027403FC03C8045005D8051C0696
:100C3000A4062C07F807800808094C09D4095C0AA7
:100C4000280BB00B380C7C0C040D8C0D580EE00EEC
:100C5000680FAC0F00000000000000000000000062
:100C60000000000000000000000000000000000084
:100C70000000000000000000000000000000000074
:100C80000000000000000000000000000000000064
:100C90000000000022004D0077009900B300CC0056
:100CA000EE001901430165017F019801BA01E501D8
:100CB0000F0231024B0264028602B102DB02FD0226
:100CC0001703300352037D03A703C903E3030000A6
:100CD0000000000000000000000000000000000014
:100CE0000000000000000000000000000000000004
:100CF00000000000000000000000000000000000F4
:100D000000000000000000000000000000000000E3
:100D100088005401DC016402A8023003B803840493
:100D20000C059405D8056006E806B4073C08C4081D
:100D300008099009180AE40A6C0BF40B380CC00C73
:100D4000480D140E9C0E240F680FF00F00000000D9
:100D50000000000000000000000000000000000093
:100D60000000000000000000000000000000000083
:100D70000000000000000000000000000000000073
:100D80000000000000000000000011003C006600B0
:100D90008800A200BB00DD000801320154016E0191
:100DA0008701A901D401FE0120023A025302750213
:100DB000A002CA02EC0206031F0341036C03960360
:100DC000B803D203EB0300000000000000000000A5
:100DD0000000000000000000000000000000000013
:100DE0000000000000000000000000000000000003
:100DF00000000000000000000000000000000000F3
:100E00000000000044001001980120026402EC027E
:100E100074034004C804500594051C06A40670071A
:100E2000F8078008C4084C09D409A00A280BB00BA5
:100E3000F40B7C0C040DD00D580EE00E240FAC0FFB
:100E400000000000000000000000000000000000A2
:100E50000000000000000000000000000000000092
:100E60000000000000000000000000000000000082
:100E70000000000000000000000000000000000072
:100E80002B00550077009100AA00CC00F70021014B
:100E900043015D0176019801C301ED010F022902B2
:100EA000420264028F02B902DB02F5020E03300334
:100EB0005B038503A703C103DA0300000000000001
:100EC0000000000000000000000000000000000022
:100ED0000000000000000000000000000000000012
:100EE0000000000000000000000000000000000002
:100EF000000000000000000000000000CC005401D1
:100F0000DC012002A8023003FC0384040C05500518
:100F1000D80560062C07B4073C088008080990092A
:100F20005C0AE40A6C0BB00B380CC00C8C0D140E70
:100F30009C0EE00E680FF00F0000000000000000A3
:100F400000000000000000000000000000000000A1
:100F50000000000000000000000000000000000091
:100F60000000000000000000000000000000000081
:100F70000000000000001A00440066008000990094
:100F8000BB00E600100132014C0165018701B2018E
:100F9000DC01FE011802310253027E02A802CA02DD
:100FA000E402FD021F034A0374039603B003C9035E
:100FB000EB03000000000000000000000000000043
:100FC0000000000000000000000000000000000021
:100FD0000000000000000000000000000000000011
:100FE0000000000000000000000000000000000001
:100FF000880010019801DC016402EC02B80340048F
:10100000C8040C0594051C06E8067007F8073C08A0
:10101000C4084C09180AA00A280B6C0BF40B7C0CB2
:10102000480DD00D580E9C0E240FAC0F0000000090
:1010300000000000000000000000000000000000B0
:1010400000000000000000000000000000000000A0
:101050000000000000000000000000000000000090
:1010600000000000000000000000000033005500F8
:101070006F008800AA00D500FF0021013B01540148
:101080007601A101CB01ED010702200242026D02AF
:101090009702B902D302EC020E03390363038503FE
:1010A0009F03B803DA030000000000000000000006
:1010B0000000000000000000000000000000000030
:1010C0000000000000000000000000000000000020
:1010D0000000000000000000000000000000000010
:1010E0000000000000004400CC00540198012002E0
:1010F000A8027403FC038404C8045005D805A406A0
:101100002C07B407F80780080809D4095C0AE40A28
:10111000280BB00B380C040D8C0D140E580EE00E7D
:10112000680F000000000000000000000000000048
:1011300000000000000000000000000000000000AF
:10114000000000000000000000000000000000009F
:10115000000000000000000000000000000000008F
:101160000000220044005E0077009900C400EE00F9
:1011700010012A01430165019001BA01DC01F60169
:101180000F0231025C028602A802C202DB02FD02EB
:101190002803520374038E03A703C9030000000051
:1011A000000000000000000000000000000000003F
:1011B000000000000000000000000000000000002F
:1011C000000000000000000000000000000000001F
:1011D0000000000000000000000000000000880087
:1011E00010015401DC0164023003B803400484049C
:1011F0000C0594056006E8067007B4073C08C408AF
:101200009009180AA00AE40A6C0BF40BC00C480DF4
:10121000D00D140E9C0E240FF00F000000000000F3
:1012200000000000000000000000000000000000BE
:1012300000000000000000000000000000000000AE
:10124000000000000000000000000000000000009E
:101250000000000000000000110033004D00660097
:101260008800B300DD00FF001901320154017F0145
:10127000A901CB01E501FE0120024B027502970294
:10128000B102CA02EC021703410363037D03960314
:10129000B803E303000000000000000000000000AD
:1012A000000000000000000000000000000000003E
:1012B000000000000000000000000000000000002E
:1012C000000000000000000000000000000000001E
:1012D00000004400CC00100198012002EC027403CD
:1012E000FC034004C80450051C06A4062C07700724
:1012F000F80780084C09D4095C0AA00A280BB00B37
:101300007C0C040D8C0DD00D580EE00EAC0F0000BF
:1013100000000000000000000000000000000000CD
:1013200000000000000000000000000000000000BD
:1013300000000000000000000000000000000000AD
:10134000000000000000000000000000000022007B
:101350003C0055007700A200CC00EE0008012101FE
:1013600043016E019801BA01D401ED010F023A0266
:1013700064028602A002B902DB02060330035203B4
:101380006C038503A703D2030000000000000000E7
:10139000000000000000000000000000000000004D
:1013A000000000000000000000000000000000003D
:1013B000000000000000000000000000000000002D
:1013C000000000000000000000008800CC00540174
:1013D000DC01A8023003B803FC0384040C05D80523
:1013E0006006E8062C07B4073C0808099009180AAB
:1013F0005C0AE40A6C0B380CC00C480D8C0D140E02
:101400009C0E680FF00F00000000000000000000BC
:1014100000000000000000000000000000000000CC
:1014200000000000000000000000000000000000BC
:1014300000000000000000000000000000000000AC
:101440000000000011002B00440066009100BB006A
:10145000DD00F700100132015D018701A901C30120
:10146000DC01FE012902530275028F02A802CA02A2
:10147000F5021F0341035B0374039603C103EB03EF
:10148000000000000000000000000000000000005C
:10149000000000000000000000000000000000004C
:1014A000000000000000000000000000000000003C
:1014B00000000000000000000000000000004400E8
:1014C0008800100198016402EC027403B803400420
:1014D000C80494051C06A406E8067007F807C408AB
:1014E0004C09D409180AA00A280BF40B7C0C040D33
:1014F000480DD00D580E240FAC0F00000000000066
:1015000000000000000000000000000000000000DB
:1015100000000000000000000000000000000000CB
:1015200000000000000000000000000000000000BB
:10153000000000000000000000001A003300550009
:101540008000AA00CC00E600FF0021014C017601DA
:101550009801B201CB01ED011802420264027E0241
:101560009702B902E4020E0330034A0363038503C2
:10157000B003DA03000000000000000000000000DB
:10158000000000000000000000000000000000005B
:10159000000000000000000000000000000000004B
:1015A000000000000000000000000000000000003B
:1015B0000000000000004400CC0054012002A802FA
:1015C00030037403FC0384045005D8056006A406A8
:1015D0002C07B407800808099009D4095C0AE40ABA
:1015E000B00B380CC00C040D8C0D140EE00E680FFF
:1015F000F00F0000000000000000000000000000EC
:1016000000000000000000000000000000000000DA
:1016100000000000000000000000000000000000CA
:1016200000000000000000000000000000000000BA
:101630000900220044006F009900BB00D500EE00B5
:1016400010013B0165018701A101BA01DC0107021C
:10165000310253026D028602A802D302FD021F036B
:101660003903520374039F03C903EB030000000016
:10167000000000000000000000000000000000006A
:10168000000000000000000000000000000000005A
:10169000000000000000000000000000000000004A
:1016A00000000000000000000000000088001001A1
:1016B000DC016402EC023003B80340040C0594051D
:1016C0001C066006E80670073C08C4084C0990092F
:1016D000180AA00A6C0BF40B7C0CC00C480DD00D42
:1016E0009C0E240FAC0FF00F000000000000000063
:1016F00000000000000000000000000000000000EA
:1017000000000000000000000000000000000000D9
:1017100000000000000000000000000000000000C9
:10172000000000000000110033005E008800AA00E5
:10173000C400DD00FF002A01540176019001A901D7
:10174000CB01F601200242025C0275029702C2023E
:10175000EC020E032803410363038E03B803DA038C
:10176000F403000000000000000000000000000082
:101770000000000000000000000000000000000069
:101780000000000000000000000000000000000059
:101790000000000000000000000000000000000049
:1017A0004400CC0098012002EC027403FC03C8043E
:1017B00050051C06A4062C07F80780084C09D4091C
:1017C0005C0A280BB00B7C0C040D8C0D580EE00E3F
:1017D000AC0F00000000000000000000000000004E
:1017E00000000000000000000000000000000000F9
:1017F00000000000000000000000000000000000E9
:1018000000000000000000000000000000000000D8
:1018100000000000000000000000000022004D0059
:101820007700A200CC00EE00190143016E0198017F
:10183000BA01E5010F023A0264028602B102DB023C
:101840000603300352037D03A703D2030000000008
:101850000000000000000000000000000000000088
:101860000000000000000000000000000000000078
:101870000000000000000000000000000000000068
:101880000000000000000000000000000000000058
:10189000000000000000000088005401DC01A802E4
:1018A0003003B80384040C05D8056006E806B407C5
:1018B0003C0808099009180AE40A6C0B380CC00CA3
:1018C000480D140E9C0E680FF00F00000000000081
:1018D0000000000000000000000000000000000008
:1018E00000000000000000000000000000000000F8
:1018F00000000000000000000000000000000000E8
:1019000000000000000000000000000000000000D7
:10191000000011003C0066009100BB00DD000801E2
:1019200032015D018701A901D401FE0129025302A0
:101930007502A002CA02F5021F0341036C0396035D
:10194000C103EB03000000000000000000000000E5
:101950000000000000000000000000000000000087
:101960000000000000000000000000000000000077
:101970000000000000000000000000000000000067
:101980000000000000000000000000004400100102
:1019900098016402EC0274034004C80494051C0618
:1019A000A4067007F807C4084C09D409A00A280B3C
:1019B000F40B7C0C040DD00D580E240FAC0F00005E
:1019C0000000000000000000000000000000000017
:1019D0000000000000000000000000000000000007
:1019E00000000000000000000000000000000000F7
:1019F00000000000000000000000000000000000E7
:101A000000000000000000002B0055008000AA002C
:101A1000CC00F70021014C0176019801C301ED01D2
:101A20001802420264028F02B902E4020E0330037C
:101A30005B038503B003DA03000000000000000030
:101A40000000000000000000000000000000000096
:101A50000000000000000000000000000000000086
:101A60000000000000000000000000000000000076
:101A70000000000000000000000000000000000066
:101A800000000000CC0054012002A8023003FC0337
:101A900084045005D80560062C07B407800808099F
:101AA00090095C0AE40AB00B380CC00C8C0D140EC3
:101AB000E00E680FF00F00000000000000000000C2
:101AC0000000000000000000000000000000000016
:101AD0000000000000000000000000000000000006
:101AE00000000000000000000000000000000000F6
:101AF00000000000000000000000000000001A00CC
:101B000044006F009900BB00E60010013B01650135
:101B10008701B201DC010702310253027E02A802F2
:101B2000D302FD021F034A0374039F03C903EB039F
:101B300000000000000000000000000000000000A5
:101B40000000000000000000000000000000000095
:101B50000000000000000000000000000000000085
:101B60000000000000000000000000000000000075
:101B7000000000000000000088001001DC01640289
:101B8000EC02B80340040C0594051C06E806700737
:101B90003C08C4084C09180AA00A6C0BF40B7C0C16
:101BA000480DD00D9C0E240FAC0F0000000000006B
:101BB0000000000000000000000000000000000025
:101BC0000000000000000000000000000000000015
:101BD0000000000000000000000000000000000005
:101BE00000000000000000000000000000000000F5
:101BF0000000000033005E008800AA00D500FF004E
:101C00002A0154017601A101CB01F6012002420212
:101C10006D029702C202EC020E03390363038E03C6
:101C2000B803DA030000000000000000000000001C
:101C300000000000000000000000000000000000A4
:101C40000000000000000000000000000000000094
:101C50000000000000000000000000000000000084
:101C60000000000000000000000000000000440030
:101C7000CC0098012002A8027403FC03C80450059C
:101C8000D805A4062C07F80780080809D4095C0ABF
:101C9000280BB00B380C040D8C0D580EE00E680F9D
:101CA0000000000000000000000000000000000034
:101CB0000000000000000000000000000000000024
:101CC0000000000000000000000000000000000014
:101CD0000000000000000000000000000000000004
:101CE0000000000000000000000022004D0077000E
:101CF0009900C400EE001901430165019001BA0189
:101D0000E5010F0231025C028602B102DB02FD0234
:101D1000280352037D03A703C9030000000000004D
:101D200000000000000000000000000000000000B3
:101D300000000000000000000000000000000000A3
:101D40000000000000000000000000000000000093
:101D50000000000000000000000000000000000083
:101D600000000000000088005401DC016402300320
:101D7000B80384040C0594056006E806B4073C0823
:101D8000C4089009180AE40A6C0BF40BC00C480D47
:101D9000140E9C0E240FF00F000000000000000045
:101DA0000000000000000000000000000000000033
:101DB0000000000000000000000000000000000023
:101DC0000000000000000000000000000000000013
:101DD0000000000000000000000000000000000003
:101DE00011003C0066008800B300DD0008013201EC
:101DF00054017F01A901D401FE0120024B027502AA
:101E0000A002CA02EC02170341036C039603B80355
:101E1000E3030000000000000000000000000000DC
:101E200000000000000000000000000000000000B2
:101E300000000000000000000000000000000000A2
:101E40000000000000000000000000000000000092
:101E50000000000000000000000044001001980194
:101E60002002EC0274034004C80450051C06A406BA
:101E70007007F80780084C09D409A00A280BB00B9A
:101E80007C0C040DD00D580EE00EAC0F00000000CD
:101E90000000000000000000000000000000000042
:101EA0000000000000000000000000000000000032
:101EB0000000000000000000000000000000000022
:101EC0000000000000000000000000000000000012
:101ED0000000000000002B0055007700A200CC009D
:101EE000F700210143016E019801C301ED010F02CA
:101EF0003A0264028F02B902DB02060330035B037D
:101F00008503A703D20300000000000000000000CA
:101F100000000000000000000000000000000000C1
:101F200000000000000000000000000000000000B1
:101F300000000000000000000000000000000000A1
:101F40000000000000000000000000000000000091
:101F50000000CC005401DC01A8023003FC0384041F
:101F60000C05D80560062C07B4073C080809900941
:101F70005C0AE40A6C0B380CC00C8C0D140E9C0E21
:101F8000680FF00F000000000000000000000000DB
:101F90000000000000000000000000000000000041
:101FA0000000000000000000000000000000000031
:101FB0000000000000000000000000000000000021
:101FC0000000000000000000000000001A004400B3
:101FD00066009100BB00E600100132015D0187013F
:101FE000B201DC01FE01290253027E02A802CA02EC
:101FF000F5021F034A0374039603C103EB030000B9
:1020000000000000000000000000000000000000D0
:1020100000000000000000000000000000000000C0
:1020200000000000000000000000000000000000B0
:1020300000000000000000000000000000000000A0
:102040000000000000008800100198016402EC020A
:10205000B8034004C80494051C06E8067007F80796
:10206000C4084C09180AA00A280BF40B7C0C480D74
:10207000D00D580E240FAC0F00000000000000002F
:102080000000000000000000000000000000000050
:102090000000000000000000000000000000000040
:1020A0000000000000000000000000000000000030
:1020B0000000000000000000000000000000000020
:1020C0000000330055008000AA00D500FF00210168
:1020D0004C017601A101CB01ED01180242026D0213
:1020E0009702B902E4020E03390363038503B003C8
:1020F000DA03000000000000000000000000000003
:1021000000000000000000000000000000000000CF
:1021100000000000000000000000000000000000BF
:1021200000000000000000000000000000000000AF
:102130000000000000000000000000004400CC008F
:1021400054012002A8028603FC0384045005D8052C
:10215000B6062C07B40780080809E6095C0AE40AF9
:10216000B00B380C160D8C0D140EE00E680F00002D
:10217000000000000000000000000000000000005F
:10218000000000000000000000000000000000004F
:10219000000000000000000000000000000000003F
:1021A000000000000000000000000000000000002F
:1021B0000000000000000000220044006F009900B1
:1021C000C600F00010013B0165019201BC01DC0179
:1021D000070231025E028802A802D302FD022A032E
:1021E000540374039F03C9030000000000000000B3
:1021F00000000000000000000000000000000000DF
:1022000000000000000000000000000000000000CE
:1022100000000000000000000000000000000000BE
:1022200000000000000000000000000000000000AE
:102230000000000088001001DC0164023003B803D4
:1022400040040C0594056006E80670073C08C408C5
:102250009009180AA00A6C0BF40BC00C480DD00DA5
:102260009C0E240FF00F0000000000000000000092
:10227000000000000000000000000000000000005E
:10228000000000000000000000000000000000004E
:10229000000000000000000000000000000000003E
:1022A000000000000000000000000000000011001D
:1022B00033005E008800B300DD00FF002A015401F6
:1022C0007F01A901CB01F60120024B0275029702A2
:1022D000C202EC021703410363038E03B803E30356
:1022E00000000000000000000000000000000000EE
:1022F00000000000000000000000000000000000DE
:1023000000000000000000000000000000000000CD
:1023100000000000000000000000000000000000BD
:1023200000000000000000004400CC0010019801F3
:102330002002A802EC027403FC034004C804500508
:10234000D8051C06A4062C077007F80780080809A2
:102350004C09D4095C0AA00A280BB00B380C7C0C81
:10236000040D8C0DD00D580EE00E680FAC0F000060
:10237000000000000000000000000000000000005D
:10238000000000000000000000000000000000004D
:10239000000000000000000000000000000000003D
:1023A0000000000022003C00550077009900B300B7
:1023B000CC00EE0008012101430165017F01980175
:1023C000BA01D401ED010F0231024B026402860210
:1023D000A002B902DB02FD021703300352036C03B3
:1023E0008503A703C903E303000000000000000009
:1023F00000000000000000000000000000000000DD
:1024000000000000000000000000000000000000CC
:1024100000000000000000000000000000000000BC
:102420008800CC005401DC016402A8023003B80328
:10243000FC0384040C059405D8056006E8062C0707
:10244000B4073C08C40808099009180A5C0AE40AA1
:102450006C0BF40B380CC00C480D8C0D140E9C0E3C
:10246000240F680FF00F00000000000000000000C3
:10247000000000000000000000000000000000005C
:10248000000000000000000000000000000000004C
:102490000000000000000000000011002B004400BC
:1024A00066008800A200BB00DD00F70010013201C9
:1024B00054016E018701A901C301DC01FE01200264
:1024C0003A02530275028F02A802CA02EC02060306
:1024D0001F0341035B0374039603B803D203EB03AA
:1024E00000000000000000000000000000000000EC
:1024F00000000000000000000000000000000000DC
:1025000000000000000000000000000000000000CB
:1025100000000000440088001001980120026402BD
:10252000EC027403B8034004C804500594051C066B
:10253000A406E8067007F8078008C4084C09D40907
:10254000180AA00A280BB00BF40B7C0C040D480DE4
:10255000D00D580EE00E240FAC0F0000000000005C
:10256000000000000000000000000000000000006B
:10257000000000000000000000000000000000005B
:10258000000000000000000000000000000000004B
:102590001A003300550077009100AA00CC00E60035
:1025A000FF00210143015D0176019801B201CB01D9
:1025B000ED010F022902420264027E029702B90273
:1025C000DB02F5020E0330034A0363038503A7030E
:1025D000C103DA030000000000000000000000005A
:1025E00000000000000000000000000000000000EB
:1025F00000000000000000000000000000000000DB
:102600000000000000000000000000004400CC00BA
:102610005401DC012002A80230037403FC0384048B
:102620000C055005D8056006A4062C07B4073C0825
:10263000800808099009D4095C0AE40A6C0BB00B05
:10264000380CC00C040D8C0D140E9C0EE00E680F9F
:10265000F00F00000000000000000000000000007B
:10266000000000000000000000000000000000006A
:10267000000000000000000000000000000000005A
:1026800000000000000009002200440066008000F5
:102690009900BB00D500EE00100132014C0165012C
:1026A0008701A101BA01DC01FE01180231025302C7
:1026B0006D028602A802CA02E402FD021F0339036A
:1026C000520374039603B003C903EB030000000038
:1026D00000000000000000000000000000000000FA
:1026E00000000000000000000000000000000000EA
:1026F00000000000000000000000000000000000DA
:102700000000880010019801DC016402EC02300333
:10271000B8034004C8040C0594051C066006E806CE
:102720007007F8073C08C4084C099009180AA00A69
:10273000280B6C0BF40B7C0CC00C480DD00D580E04
:102740009C0E240FAC0FF00F0000000000000000F2
:102750000000000000000000000000000000000079
:102760000000000000000000000000000000000069
:102770000000000000000000000000001100330015
:1027800055006F008800AA00C400DD00FF00210191
:102790003B01540176019001A901CB01ED01070233
:1027A000200242025C0275029702B902D302EC02D7
:1027B0000E0328034103630385039F03B803DA0371
:1027C000F403000000000000000000000000000012
:1027D00000000000000000000000000000000000F9
:1027E00000000000000000000000000000000000E9
:1027F0000000000000004400CC00540198012002B9
:10280000A802EC027403FC038404C8045005D80534
:102810001C06A4062C07B407F807800808094C0911
:10282000D4095C0AE40A280BB00B380C7C0C040DAC
:102830008C0D140E580EE00E680FAC0F0000000057
:102840000000000000000000000000000000000088
:102850000000000000000000000000000000000078
:102860000000000000000000000000000000000068
:102870000000220044005E0077009900B300CC0005
:10288000EE0010012A01430165017F019801BA01A0
:10289000DC01F6010F0231024B0264028602A8023B
:1028A000C202DB02FD0217033003520374038E03DE
:1028B000A703C903E30300000000000000000000BC
:1028C0000000000000000000000000000000000008
:1028D00000000000000000000000000000000000F8
:1028E0000000000000000000000000000000880060
:1028F00010015401DC016402A8023003B803400453
:1029000084040C059405D8056006E8067007B40732
:102910003C08C40808099009180AA00AE40A6C0BCC
:10292000F40B380CC00C480DD00D140E9C0E240F67
:10293000680FF00F00000000000000000000000021
:102940000000000000000000000000000000000087
:102950000000000000000000000000000000000077
:102960000000000000000000110033004D00660070
:102970008800A200BB00DD00FF00190132015401F4
:102980006E018701A901CB01E501FE0120023A0297
:10299000530275029702B102CA02EC0206031F033A
:1029A000410363037D039603B803D203EB030000E6
:1029B0000000000000000000000000000000000017
:1029C0000000000000000000000000000000000007
:1029D00000000000000000000000000000000000F7
:1029E00000004400CC001001980120026402EC02B7
:1029F0007403FC034004C804500594051C06A40697
:102A00002C077007F8078008C4084C09D4095C0A31
:102A1000A00A280BB00BF40B7C0C040D8C0DD00D10
:102A2000580EE00E240FAC0F000000000000000064
:102A30000000000000000000000000000000000096
:102A40000000000000000000000000000000000086
:102A50000000000000000000000000000000220054
:102A60003C00550077009100AA00CC00EE00080160
:102A7000210143015D0176019801BA01D401ED0104
:102A80000F022902420264028602A002B902DB029E
:102A9000F5020E03300352036C038503A703C10341
:102AA000DA03000000000000000000000000000049
:102AB0000000000000000000000000000000000016
:102AC0000000000000000000000000000000000006
:102AD000000000000000000000008800CC0054014D
:102AE000DC012002A8023003B803FC0384040C05B7
:102AF0005005D8056006E8062C07B4073C08800896
:102B000008099009180A5C0AE40A6C0BB00B380C2F
:102B1000C00C480D8C0D140E9C0EE00E680FF00FCB
:102B200000000000000000000000000000000000A5
:102B30000000000000000000000000000000000095
:102B40000000000000000000000000000000000085
:102B50000000000011002B00440066008000990076
:102B6000BB00DD00F700100132014C016501870157
:102B7000A901C301DC01FE011802310253027502F2
:102B80008F02A802CA02E402FD021F0341035B0395
:102B900074039603B003C903EB03000000000000B8
:102BA0000000000000000000000000000000000025
:102BB0000000000000000000000000000000000015
:102BC00000000000000000000000000000004400C1
:102BD000880010019801DC016402EC027403B80360
:102BE0004004C8040C0594051C06A406E8067007FA
:102BF000F8073C08C4084C09D409180AA00A280B95
:102C00006C0BF40B7C0C040D480DD00D580E9C0E73
:102C1000240FAC0F000000000000000000000000C6
:102C200000000000000000000000000000000000A4
:102C30000000000000000000000000000000000094
:102C4000000000000000000000001A0033005500E2
:102C50006F008800AA00CC00E600FF0021013B01C4
:102C6000540176019801B201CB01ED010702200267
:102C7000420264027E029702B902D302EC020E0302
:102C800030034A03630385039F03B803DA0300009C
:102C90000000000000000000000000000000000034
:102CA0000000000000000000000000000000000024
:102CB0000000000000000000000000000000000014
:102CC0000000000000004400CC00540198012002E4
:102CD000A80230037403FC038404C8045005D8051B
:102CE0006006A4062C07B407F807800808099009B5
:102CF000D4095C0AE40A280BB00B380CC00C040D94
:102D00008C0D140E580EE00E680FF00F000000003E
:102D100000000000000000000000000000000000B3
:102D200000000000000000000000000000000000A3
:102D30000000000000000000000000000000000093
:102D40000900220044005E0077009900BB00D50016
:102D5000EE0010012A01430165018701A101BA01BA
:102D6000DC01F6010F02310253026D028602A80255
:102D7000C202DB02FD021F033903520374038E03F8
:102D8000A703C903EB0300000000000000000000DF
:102D90000000000000000000000000000000000033
:102DA0000000000000000000000000000000000023
:102DB000000000000000000000000000880010017A
:102DC0005401DC016402EC023003B80340048404C3
:102DD0000C0594051C066006E8067007B4073C085D
:102DE000C4084C099009180AA00AE40A6C0BF40BF9
:102DF0007C0CC00C480DD00D140E9C0E240FAC0F93
:102E0000F00F0000000000000000000000000000C3
:102E100000000000000000000000000000000000B2
:102E200000000000000000000000000000000000A2
:102E3000000000000000110033004D006600880013
:102E4000AA00C400DD00FF0019013201540176011F
:102E50009001A901CB01E501FE01200242025C02C2
:102E600075029702B102CA02EC020E032803410365
:102E700063037D039603B803DA03F4030000000044
:102E80000000000000000000000000000000000042
:102E90000000000000000000000000000000000032
:102EA0000000000000000000000000000000000022
:102EB000000044008800CC00100154019801DC019E
:102EC00020026402A802EC0230037403B803FC037E
:102ED00040048404C8040C0550059405D8051C065C
:102EE0006006A406E8062C077007B407F8073C083C
:102EF0008008C40808094C099009D409180A5C0A1A
:102F0000A00AE40A280B6C0BB00BF40B380C7C0CF9
:102F1000C00C040D480D8C0DD00D140E580E9C0ED7
:102F2000E00E240F680FAC0FF00F000009001A002C
:102F30002B003C004D005E006F0080009100A2005D
:102F4000B300C400D500E600F700080119012A010A
:102F50003B014C015D016E017F019001A101B201B5
:102F6000C301D401E501F6010702180229023A0261
:102F70004B025C026D027E028F02A002B102C2020D
:102F8000D302E402F50206031703280339034A03B8
:102F90005B036C037D038E039F03B003C103D20365
:102FA000E303F40300000102040810204080010242
:102FB0000408102001020408102000000000230073
:102FC000260029000404040404040404020202028A
:102FD0000202030303030303DA2011241FBECFEF11
:102FE000D8E0DEBFCDBF11E0A0E0B1E0E0E8F3E65D
:102FF00002C005900D92A234B107D9F722E0A2E4F5
:10300000B1E001C01D92AE3DB207E1F717E1CDEE90
:10301000D7E104C02197FE010E949D31CC3ED1072B
:10302000C9F70E9498210C94BE310C9400000895B9
:103030000895AF92BF92CF92DF92EF92FF920F93DB
:103040001F93CF93DF936C017B018B01040F151F3E
:10305000EB015E01AE18BF08C017D10759F06991A6
:10306000D601ED91FC910190F081E02DC60109950A
:10307000892B79F7C501DF91CF911F910F91FF90B7
:10308000EF90DF90CF90BF90AF900895FC01538DEB
:10309000448D252F30E0842F90E0821B930B541732
:1030A00010F0CF96089501970895FC01918D828DBF
:1030B000981761F0A28DAE0FBF2FB11D5D968C9158
:1030C000928D9F5F9F73928F90E008958FEF9FEF97
:1030D0000895FC01918D828D981731F0828DE80F53
:1030E000F11D858D90E008958FEF9FEF0895FC010D
:1030F000918D228D892F90E0805C9F4F821B9109DA
:103100008F739927089585E292E00E94771821E055
:10311000892B09F420E0822F089580E090E0892B2C
:1031200029F00E94831881110C9400000895FC017D
:10313000A48DA80FB92FB11DA35ABF4F2C91848D18
:1031400090E001968F739927848FA689B7892C9375
:10315000A089B1898C91837080648C93938D848DC8
:10316000981306C00288F389E02D80818F7D8083CB
:103170000895EF92FF920F931F93CF93DF93EC018B
:1031800081E0888F9B8D8C8D98131AC0E889F9890E
:10319000808185FF15C09FB7F894EE89FF89608311
:1031A000E889F98980818370806480839FBF81E092
:1031B00090E0DF91CF911F910F91FF90EF900895D4
:1031C000F62E0B8D10E00F5F1F4F0F731127E02EAF
:1031D0008C8D8E110CC00FB607FCFACFE889F989E7
:1031E000808185FFF5CFCE010E949718F1CFEB8D3E
:1031F000EC0FFD2FF11DE35AFF4FF0829FB7F894BB
:103200000B8FEA89FB8980818062CFCFCF93DF93D8
:10321000EC01888D8823B9F0AA89BB89E889F989EE
:103220008C9185FD03C0808186FD0DC00FB607FC23
:10323000F7CF8C9185FFF2CF808185FFEDCFCE0156
:103240000E949718E9CFDF91CF910895833081F0E4
:1032500028F4813099F08230A9F008958730A9F0E0
:103260008830C9F08430B1F4809180008F7D03C034
:10327000809180008F7780938000089584B58F7748
:1032800084BD089584B58F7DFBCF8091B0008F778A
:103290008093B00008958091B0008F7DF9CFCF93D7
:1032A000DF93282F30E0F901E458FF4F8491F901B2
:1032B000EA55F04DD491F901EC53F04DC491CC2373
:1032C000A1F081110E942619EC2FF0E0EE0FFF1FF4
:1032D000E654F04DA591B491EC91ED2381E090E09E
:1032E00009F480E0DF91CF91089580E090E0FACF7B
:1032F0001F93CF93DF93282F30E0F901E458FF4F5D
:103300008491F901EA55F04DD491F901EC53F04D57
:10331000C491CC23A9F0162F81110E942619EC2FFD
:10332000F0E0EE0FFF1FEE58FF4FA591B4918FB75D
:10333000F894EC91111108C0D095DE23DC938FBF77
:10334000DF91CF911F910895DE2BF8CFCF93DF93BC
:1033500090E0FC01EA55F04D24918C53904DFC0116
:1033600084918823D1F090E0880F991FFC01E859DF
:10337000FF4FA591B491FC01EE58FF4FC591D49138
:10338000623071F49FB7F8943C91822F809583232B
:103390008C93E8812E2B28839FBFDF91CF910895D6
:1033A0008FB7F894EC912E2B2C938FBFF6CF1F93F1
:1033B000CF93DF93182FEB0161E00E94A6192097AD
:1033C00039F460E0812FDF91CF911F910C9478192F
:1033D000CF3FD10511F461E0F5CFE12FF0E0E458E3
:1033E000FF4FE491E33031F140F4E130B1F0E230ED
:1033F000E1F0C038D1057CF7E4CFE73029F1E830BF
:1034000059F1E430B1F780918000806280938000B0
:10341000D0938B00C0938A0004C084B5806884BDBB
:10342000C7BDDF91CF911F91089584B5806284BD9F
:10343000C8BDF7CF80918000806880938000D093D2
:103440008900C0938800EDCF8091B00080688093A0
:10345000B000C093B300E5CF8091B000806280934C
:10346000B000C093B400DDCF806480937C00809175
:103470007A00806480937A0080917A0086FDFCCF88
:10348000809178009091790008953FB7F8948091E9
:10349000AB019091AC01A091AD01B091AE0126B508
:1034A000A89B05C02F3F19F00196A11DB11D3FBF7C
:1034B000BA2FA92F982F8827BC01CD01620F711D4B
:1034C000811D911D42E0660F771F881F991F4A9545
:1034D000D1F708958F929F92AF92BF92CF92DF92D1
:1034E000EF92FF920E94451A4B015C0185E0C82EC5
:1034F000D12CE12CF12C0E94451A681979098A090E
:103500009B09683E734081059105A8F321E0C21A2A
:10351000D108E108F10888EE880E83E0981EA11C0E
:10352000B11CC114D104E104F10429F7FF90EF901C
:10353000DF90CF90BF90AF909F908F900895209193
:103540008701260F3327331F21323105ECF42091F8
:10355000FB01FC0190E080E0243069F082E00895F6
:10356000A09187012191AC0149595E4FA40FB52F5D
:10357000B11D2C930196861798F380918701680FEF
:103580006093870180E0089581E008951092FB0127
:1035900081E08093FA011092D50161E082E10E94FE
:1035A000781961E083E10E947819E9EBF0E080810D
:1035B0008E7F808380818D7F808388E48093B800B4
:1035C00085E48093BC000895CF93DF9391E09093BE
:1035D00066018823B9F0C091B800D091BA008091FB
:1035E000BC008A7B8093BC0060E082E10E94781975
:1035F00060E083E10E9478190E94C61AD093BA0055
:10360000C093B800DF91CF910895CF92DF92EF92EF
:10361000FF920F931F93CF93DF93D091240281E009
:10362000D13208F09CC0C09123020E94451A6B0160
:103630007C018091FB0181116CC082E08093FB01D1
:1036400081E08093FA018FEF8093F9011092F801E5
:10365000D093F701A3E0B2E0E7EDF1E080E0D8130A
:103660008DC01092D6018091D601CC0FC82BC0938B
:10367000D6018091D501813009F084C01092D50126
:103680000E94451A6B017C018091D6018093BB009A
:103690008091FD019091FE01A091FF01B091000287
:1036A000892B8A2B8B2BA1F00E94451A0091FD01DA
:1036B0001091FE012091FF01309100026C197D09EB
:1036C0008E099F09061717072807390708F442C013
:1036D0008091BC0083FDD8CF85EC8093BC000E9414
:1036E000451A6B017C018091FB01823009F44CC0CA
:1036F0008091F9018F3F09F469C08091F90180320E
:1037000009F466C08091F901803309F463C084E054
:1037100026C08091FD019091FE01A091FF01B09122
:103720000002892B8A2B8B2B09F483CF0E94451A28
:103730000091FD011091FE012091FF0130910002E6
:103740006C197D098E099F09061717072807390785
:1037500008F06FCF8091FC010E94E41A85E010927E
:1037600002021092240210920102DF91CF911F9168
:103770000F91FF90EF90DF90CF9008959D919193DE
:103780008F5F6DCF85EEA9CF8091FD019091FE01F5
:10379000A091FF01B0910002892B8A2B8B2B09F499
:1037A000A2CF0E94451A0091FD011091FE012091C7
:1037B000FF01309100026C197D098E099F090617DF
:1037C00017072807390708F08ECFC4CF80E0C7CF8E
:1037D00082E0C5CF83E0C3CF0895E091B40180912A
:1037E000B301E81730F4F0E0EA5BFE4F808190E02F
:1037F00008958FEF9FEF08959091B4018091B301E8
:103800002FEF3FEF981748F4E92FF0E0EA5BFE4F07
:10381000208130E09F5F9093B401C90108958091A9
:10382000B3019091B401891B990B0895CF92DF9257
:10383000EF92FF920F931F93CF93DF937C01CB0105
:103840008A0120910102222389F0EB016B01C40E51
:10385000D51ECC15DD0569F06991D701ED91FC917C
:103860000190F081E02DC7010995F3CF642F0E94EC
:103870009F1AC801DF91CF911F910F91FF90EF9098
:10388000DF90CF900895CF93DF931F92CDB7DEB72F
:103890006983209101022223F9F020912402203231
:1038A00058F021E030E0FC013383228390E080E097
:1038B0000F90DF91CF91089580910202E82FF0E000
:1038C000ED5FFD4F998190838F5F8093020280931B
:1038D000240281E090E0ECCF61E0CE0101960E94ED
:1038E0009F1AF7CF82EC92E00C94431C90E080E0AA
:1038F0000895CF92DF92EF92FF920F931F93CF9391
:10390000DF93062F142F282F30E0A2E3B0E00E94AF
:10391000AE2FC12CD12C7601CA94A70196010E942A
:103920005A2FCFEFD0E0BE01621B730B89E00E94DB
:10393000D719202F30E0A2E3B0E00E94AE2FA701FC
:1039400096010E945A2FBE01621B730B8BE00E94EE
:10395000D719212F30E0A2E3B0E00E94AE2FA701DB
:1039600096010E945A2FBE01621B730B8AE0DF9101
:10397000CF911F910F91FF90EF90DF90CF900C941B
:10398000D7192F923F924F925F926F927F928F92B0
:103990009F92AF92BF92CF92DF92EF92FF920F93DE
:1039A0001F93CF93DF93CDB7DEB72A970FB6F89466
:1039B000DEBF0FBECDBF6B017C0161E085E00E94E0
:1039C00078198091BF01882339F00091000110918E
:1039D000010104301105F4F581E08093010280E6D5
:1039E0008093230210920202109224029927F7FC7E
:1039F0009A958F2D7E2D6D2D6F70772788279927AB
:103A00000E94721CC701B6010E94721C0E94051B15
:103A10000E946A1A60E085E00E94781960E085E003
:103A20002A960FB6F894DEBF0FBECDBFDF91CF91BF
:103A30001F910F91FF90EF90DF90CF90BF90AF90CC
:103A40009F908F907F906F905F904F903F902F90BE
:103A50000C947819813011F78090420190904301C5
:103A6000A0904401B09045013324339420E6222EE7
:103A7000C814D904EA04FB040CF053C0D501C401F6
:103A80008C199D09AE09BF0989839A83AB83BC83D6
:103A9000C801012E000CAA0BBB0B8D839E83AF8344
:103AA000B887A091BB01B091BC01BA87A9870A175A
:103AB0001B070CF488C0309201022092230210925E
:103AC00002021092240229813A814B815C810E947A
:103AD000842F2D813E814F8158850E945A2F2401C9
:103AE0003501421A530A640A750A992777FC9A9598
:103AF000872D762D652D6F707727882799270E944F
:103B0000721CC301B2010E94721C0E94051B0E941C
:103B10006A1A89859A8501969093BC018093BB01AE
:103B2000C0CFD701C60188199909AA09BB098983A1
:103B30009A83AB83BC83C801012E000CAA0BBB0B7C
:103B40008D839E83AF83B887A091BB01B091BC01E8
:103B5000BA87A9870A171B07B4F130920102209295
:103B60002302109202021092240229813A814B8191
:103B70005C810E94842F2D813E814F8158850E9457
:103B80005A2F29013A01480C591C6A1C7B1C9927A1
:103B900077FC9A95872D762D652D6F70772788276E
:103BA00099270E94721CC301B2010E94721C0E94DC
:103BB000051B0E946A1A89859A8501969093BC011B
:103BC0008093BB01C1CFC0924201D0924301E092E9
:103BD0004401F092450122CFDC01ED91FD918081FD
:103BE000ED91FD919081ED91FD916C9163708E232B
:103BF00009F064609F2309F06860E9E0FEE1E60FE8
:103C0000F11D659565956D936D917D918D919D915A
:103C1000099423C01AC012C016C010C01EC009C02B
:103C200014C013C006C019C009C00DC007C00DC024
:103C300014C062507040804090400BC06150704092
:103C40008040904006C06E5F01C06F5F7F4F8F4F16
:103C50009F4F9E938E937E936E9308958091DD0285
:103C6000823078F4F89482ED92E00E94EC1D60912D
:103C7000D9027091DA028091DB029091DC02789493
:103C80000895F894F4CF8F929F92AF92BF920F93C2
:103C90001F93CF93DF93CDB7DEB7A1970FB6F894FC
:103CA000DEBF0FBECDBF19A2423008F44AE08E013C
:103CB0000F5D1F4F842E912CB12CA12CA5019401D6
:103CC0000E948C2FE62FB901CA01EA3044F5E05D6D
:103CD000D801EE938D01232B242B252B79F790E02F
:103CE00080E0109769F0FD0101900020E9F731971D
:103CF000AF014A1B5B0BBD0185E292E00E941918DF
:103D0000A1960FB6F894DEBF0FBECDBFDF91CF9165
:103D10001F910F91BF90AF909F908F900895E95C95
:103D2000D7CF85ED8093BC008091FD019091FE017D
:103D3000A091FF01B09100020796A11DB11D23E0E3
:103D4000B695A795979587952A95D1F72091BC00B0
:103D500024FD03C01092FB0108954091FD01509194
:103D6000FE016091FF0170910002452B462B472B0D
:103D700069F30097A105B10541F025E32A95F1F714
:103D800000000197A109B109E1CF8091FC010C94D9
:103D9000E41A1F920F920FB60F9211242F933F93A4
:103DA0004F935F936F937F938F939F93AF93BF9343
:103DB000EF93FF9385E292E00E949718FF91EF91B5
:103DC000BF91AF919F918F917F916F915F914F9133
:103DD0003F912F910F900FBE0F901F9018951F923B
:103DE0000F920FB60F9211242F938F939F93EF93FF
:103DF000FF93E0913502F09136028081E0913B0221
:103E0000F0913C0282FD1BC0908180913E028F5F49
:103E10008F7320913F02821741F0E0913E02F0E063
:103E2000EB5DFD4F958F80933E02FF91EF919F9147
:103E30008F912F910F900FBE0F901F90189580813A
:103E4000F4CF1F920F920FB60F9211242F933F932E
:103E50008F939F93AF93BF938091B5019091B601DB
:103E6000A091B701B091B8013091AA0123E0230FCE
:103E70002D3758F50196A11DB11D2093AA018093FD
:103E8000B5019093B601A093B701B093B8018091AA
:103E9000AB019091AC01A091AD01B091AE01019642
:103EA000A11DB11D8093AB019093AC01A093AD0116
:103EB000B093AE01BF91AF919F918F913F912F91A0
:103EC0000F900FBE0F901F90189526E8230F0296B3
:103ED000A11DB11DD2CF1F920F920FB60F921124C8
:103EE0002F933F934F935F936F937F938F939F9302
:103EF000AF93BF93EF93FF938091B900887F803693
:103F000009F44AC0F0F5883209F4A7C018F58031E9
:103F100009F49BC0B8F4882309F4F9C0883009F487
:103F200094C0FF91EF91BF91AF919F918F917F913D
:103F30006F915F914F913F912F910F900FBE0F9016
:103F40001F901895883109F488C0803251F780930A
:103F5000F90114C0803409F49DC040F48033B9F3F2
:103F60008833F9F68093F90185ECB0C0803509F407
:103F700085C0883509F496C0883499F60E94911E50
:103F8000D0CF883909F48CC038F5883729F050F43F
:103F9000883611F0803729F683E08093FB01109278
:103FA000A90157C0883809F47BC0803919F08038DE
:103FB00009F0B7CF8091A901803208F071C0E0917B
:103FC000A90181E08E0F8093A9018091BB00F0E0F0
:103FD000E757FE4F80833DC0803B39F0E0F4803AE4
:103FE00009F479C0883A09F09CCF84E08093FB0102
:103FF0001092880110928701E091B101F091B20115
:1040000009958091870181110FC081E0809387011C
:104010001092670109C0803C09F4A6CF883C09F4DE
:10402000A3CF883B09F07DCFE091880181E08E0F1E
:1040300080938801F0E0E959FE4F80818093BB00B6
:10404000909188018091870129C08091D601809349
:10405000BB0085EC8093BC0064CF9091F801809107
:10406000F701981758F5E091F80181E08E0F8093E1
:10407000F801F0E0E952FE4F8081E9CFE091F801CC
:1040800081E08E0F8093F8018091BB00F0E0E9524F
:10409000FE4F80839091F8018091F7019817C8F244
:1040A00085E8D8CFE091F80181E08E0F8093F80188
:1040B0008091BB00F0E0E952FE4F80838091FA01CD
:1040C00081115CCF81E08093D50184EA8093BC00AC
:1040D0001092FB0126CF85EC8093BC001092FB016F
:1040E0008091A901803230F4E091A901F0E0E75716
:1040F000FE4F10826091A90170E0E091AF01F09154
:10410000B00189E891E009951092A9010ACF1092B7
:10411000F90134CF1F920F920FB60F9211242F93F3
:104120003F934F935F936F937F938F939F93AF933F
:10413000BF93EF93FF938091D0029091D1020E94A0
:10414000EC1DFF91EF91BF91AF919F918F917F9166
:104150006F915F914F913F912F910F900FBE0F90F4
:104160001F9018951F920F920FB60F9211242F9344
:104170003F934F935F936F937F938F939F93AF93EF
:10418000BF93EF93FF938091CE029091CF020E9454
:10419000EC1DFF91EF91BF91AF919F918F917F9116
:1041A0006F915F914F913F912F910F900FBE0F90A4
:1041B0001F901895CF93DF93109228021092270238
:1041C00088EE93E0A0E0B0E08093290290932A0269
:1041D000A0932B02B0932C022EE131E03093260203
:1041E0002093250225EC30E03093320220933102F7
:1041F00024EC30E0309334022093330220EC30E0A2
:10420000309336022093350221EC30E030933802AF
:104210002093370222EC30E030933A0220933902A7
:1042200026EC30E030933C0220933B0210923E0299
:1042300010923F0210924002109241021092C50269
:104240001092C4028093C6029093C702A093C80242
:10425000B093C90280E391E09093C3028093C202BD
:1042600062E082E00E94A61962E083E00E94A61943
:10427000E6ECFFE2E491F0E0EE0FFF1FE654F04DB4
:10428000A591B491B093D302A093D202E8EAFFE2E1
:1042900044914093D602E7ECFFE2E491F0E0EE0FA8
:1042A000FF1FE654F04DC591D491D093D502C09331
:1042B000D402E9EAFFE2E491E093D7021092D90236
:1042C0001092DA021092DB021092DC022BE33FE143
:1042D000C9010197F1F79C91842F892391E009F49A
:1042E00090E08881E82309F0926022ED32E090931B
:1042F000D8023093CF022093CE02809169008C7F48
:10430000816080936900E89A81E08093DD023093B8
:10431000D1022093D00280916900837F84608093D2
:104320006900E99A82E08093DD02DF91CF910895E0
:10433000789484B5826084BD84B5816084BD85B580
:10434000826085BD85B5816085BD80916E0081608C
:1043500080936E0010928100809181008260809332
:104360008100809181008160809381008091800034
:104370008160809380008091B10084608093B1005F
:104380008091B00081608093B00080917A00846059
:1043900080937A0080917A00826080937A00809185
:1043A0007A00816080937A0080917A00806880939F
:1043B0007A001092C10061E089E00E94A61961E0D4
:1043C0008BE00E94A61961E08AE00E94A61961E0D4
:1043D00085E00E94A61962E086E00E94A61962E0CC
:1043E00087E00E94A619E0913502F091360282E042
:1043F0008083E0913102F09132021082E091330229
:10440000F09134028FEC808310923D02E0913902EA
:10441000F0913A0286E08083E0913702F091380211
:10442000808180618083E0913702F0913802808141
:1044300088608083E0913702F09138028081806843
:104440008083E0913702F091380280818F7D8083F4
:104450001092B4011092B301109202021092240241
:104460000E94C61A87E198E19093B2018093B1014E
:1044700088E198E19093B0018093AF0101E0F6E00C
:104480002F2E312C86E00E944F1921E0009709F071
:1044900020E02093D401892B09F00FC18091D30132
:1044A00081111AC08091D2018F5F8093D2012FB702
:1044B000F8948091B5019091B601A091B701B091A7
:1044C000B8012FBF8093CE019093CF01A093D0016C
:1044D000B093D1010093D3018FB7F894C090B50188
:1044E000D090B601E090B701F090B8018FBF409135
:1044F000CE015091CF016091D0017091D1014C500B
:104500005E4F6F4F7F4F8091D401C416D506E606EB
:10451000F70620F0811102C01092D2019091D201D1
:10452000813009F0D4C0913009F0CAC08093CD0128
:104530006091D30170E090E080E04AE00E94431E69
:1045400042E050E06EE371E085E292E00E941918CB
:104550008090160190901701A0901801B090190159
:104560008092120190921301A0921401B092150151
:104570001091CD011111EDC00E942E1E0E946730D6
:104580006B017C0120E030E040E85EE360910E01C9
:1045900070910F0180911001909111010E941C31C6
:1045A0002B013C01C0910401D091050120E030E0D5
:1045B00040E450E4C701B6010E94BD2F20E030E086
:1045C00040E85EE30E941C31A30192010E94173172
:1045D00018160CF083C0C0920E01D0920F01E09229
:1045E0001001F0921101C0920A01D0920B01E092E9
:1045F0000C01F0920D01C0920601D0920701E092E9
:104600000801F09209012197D0930501C09304019C
:10461000809104019091050197FF91C030920501AE
:104620002092040180910401909105012091CB0119
:104630003091CC01820F931F873091050CF087C019
:1046400090930301809302018091C9019091CA0166
:104650002091C7013091C801820F931F9093C6012A
:104660008093C5018C3091050CF406C10C97909392
:10467000C6018093C501E0910201F091030111236D
:1046800009F457C1113009F001C2E091C501F09160
:10469000C601EC30F10508F09BC1EF5AFC4D0C94BB
:1046A0009D31E024E3243625382528253C252C257A
:1046B0003E252E254125312544251092D3010CCFCE
:1046C000923008F435CF62E06093CD0131CF911183
:1046D0002FCF81112DCF1092CD012ACF20E030E0D5
:1046E00040E450E4C701B6010E94BE2F20E030E054
:1046F00040E85EE30E941C319B01AC01C301B201A2
:104700000E94173118160CF083CFC0920E01D09280
:104710000F01E0921001F0921101C0920A01D092B3
:104720000B01E0920C01F0920D01C0920601D092B3
:104730000701E0920801F0920901219665CF0797E1
:104740000CF470CF10920501109204016BCF079703
:1047500077CF113009F078CFC091C901D091CA014B
:104760000E942E1E0E9467306B017C0120E030E029
:1047700040E85EE360910A0170910B0180910C01A9
:1047800090910D010E941C312B013C0120E030E092
:1047900040E450E4C701B6010E94BD2F20E030E0A4
:1047A00040E85EE30E941C31A30192010E94173190
:1047B000181654F5C0920A01D0920B01E0920C0138
:1047C000F0920D01C0920E01D0920F01E092100103
:1047D000F0921101C0920601D0920701E092080107
:1047E000F09209012197D093CA01C093C901809129
:1047F000C9019091CA0197FF37C08BE090E0909378
:10480000CA018093C90120CF20E030E040E450E4A9
:10481000C701B6010E94BE2F20E030E040E85EE311
:104820000E941C319B01AC01C301B2010E941731EF
:104830001816ECF6C0920A01D0920B01E0920C011E
:10484000F0920D01C0920E01D0920F01E092100182
:10485000F0921101C0920601D0920701E092080186
:10486000F09209012196BFCF0C970CF4EDCE109277
:10487000CA011092C901E8CE123009F0FCCEC091F5
:10488000C301D091C4010E942E1E0E9467306B01AB
:104890007C0120E030E040E85EE360910601709129
:1048A000070180910801909109010E941C312B01A0
:1048B0003C0120E030E040E450E4C701B6010E9432
:1048C000BD2F20E030E040E85EE30E941C31A301F0
:1048D00092010E94173118160CF03AC0C0920601DE
:1048E000D0920701E0920801F0920901C0920E01F6
:1048F000D0920F01E0921001F0921101C0920A01D2
:10490000D0920B01E0920C01F0920D012197D0930F
:10491000C401C093C3018091C3019091C40197FF6A
:1049200047C03092C4012092C301E091C301F091CD
:10493000C401E730F10508F04BC0EF55FB4D0C9476
:104940009D31E024E32428252C252E2531253325EF
:1049500020E030E040E450E4C701B6010E94BE2FE1
:1049600020E030E040E85EE30E941C319B01AC0196
:10497000C301B2010E94173118166CF6C0920601ED
:10498000D0920701E0920801F0920901C0920E0155
:10499000D0920F01E0921001F0921101C0920A0131
:1049A000D0920B01E0920C01F0920D012196AFCF55
:1049B00007970CF4BACF1092C4011092C301B5CF7F
:1049C00040E060E002C040E06FE78FEF0E94791C9A
:1049D00087E00E944F19182F8093C20180E00E9447
:1049E000341A7C019093C1018093C00183E00E943E
:1049F000341AEC01C70162E370E00E948931072E8E
:104A0000000C880B990B0E9467309B01AC010E943F
:104A10001C3120E030E040E85FE30E94BE2F0E949E
:104A20002F307093010160930001E091C301F09178
:104A3000C401E730F10508F038C0EF5DFA4D0C9481
:104A40009D314A259625C025DC25F82518262D26DA
:104A500040E06FEF80E0BACF4FEFFBCF4FEF60E069
:104A6000F9CF4FEFAECF4FEF6FEFAFCF40E0FCCFBE
:104A700040E06FEF8FE7AACF4FE7EBCF4FEF6FE745
:104A8000E9CF4FEF60E0F6CF4FE79BCF123009F050
:104A90009FCF4BCF111170C0CF3FD10521F01CF03B
:104AA0000093BF0102C01092BF0187E00E94341A38
:104AB0006091BD017091BE01680F791F072E000C37
:104AC000880B990B0E9467306B017C01C092160124
:104AD000D0921701E0921801F0921901AC019B01EC
:104AE000C501B4010E94BD2F4B015C0120E030E004
:104AF000A9010E94173118160CF0BEC020E030E06A
:104B000040E251E4C501B4010E94173118160CF4BB
:104B1000BDC080E090E0892B09F4B4CC0E948318DA
:104B2000882309F4AFCC0E940000ACCC111124C042
:104B30000093BF01C7018C0F9D1F9093C10180930B
:104B4000C00162E370E00E948931072E000C880BDF
:104B5000990B0E9467309B01AC010E941C3120E040
:104B600030E040E85FE30E94BE2F0E942F30709338
:104B700001016093000199CF113009F096CF90CFD9
:104B8000111110C027E030E0DE010E94A3312FEFA9
:104B900033E040E050E00E945A2F3093CC01209344
:104BA000CB017ECF113009F080CF1093BF0110925E
:104BB000CC011092CB0179CF111110C02CE030E064
:104BC000DE010E94A3312FEF33E040E050E00E946D
:104BD0005A2F3093C8012093C70162CF113009F0DA
:104BE00064CF1093BF011092C8011092C7015DCF2E
:104BF000111116C02CE330E0DE010E94A3312FEF2B
:104C000033E040E050E00E945A2F61E1629FC00112
:104C1000639F900D11249093BE018093BD0140CFFE
:104C2000113009F042CF1092BE011092BD0138CF71
:104C30001111F6CFBE01DD0F880B990BE3E0660F73
:104C4000771F881F991FEA95D1F72FEF33E040E0D7
:104C500050E00E945A2F67E7D9CF1111E1CF25E02C
:104C600030E0DE010E94A3312FEF33E040E050E05E
:104C70000E945A2F6CECCACF20E030E040E251ECA9
:104C8000C501B4010E942A3087FF43CF1092BC01B6
:104C90001092BB0160900201709003018090C501E9
:104CA0009090C601B12CA12C9EE3A916B10411F479
:104CB0000C94542F67E06616710460F4F301ED590B
:104CC000F94D0C949D316E26A126E426FD260E2971
:104CD000F52A062D8FEFA81AB80AE6CFE501CC0F0A
:104CE000DD1FFE01E65DF04D6591749190E080E07E
:104CF0000E9465309B01AC01C701B6010E941731CB
:104D000087FDE8CFFE01E45DF04D6591749190E080
:104D100080E00E9465309B01AC01C701B6010E9492
:104D20002A3087FFD7CFB092BA01A092B901FE0115
:104D3000E055F14D6591749190E080E00E94C11CB6
:104D4000E8CE8CE08816910408F0C4CFF401E25557
:104D5000F94DE501CC0FDD1F0C949D31BA26A12A37
:104D6000CB2A272951297B29A529CF29F929232AAB
:104D70004D2A772AFE01EC5CF14D6591749190E02B
:104D800080E00E9465309B01AC01C701B6010E9422
:104D9000173187FD9FCFFE01EA5CF14D659174915B
:104DA00090E080E00E9465309B01AC01C701B60134
:104DB0000E942A3087FF8ECFB092BA01A092B9012B
:104DC000FE01E654F24DB6CF9CE08916910408F03E
:104DD00081CFF401EF50F94DE501CC0FDD1F0C94AC
:104DE0009D31882CB22CDC2C0E2B382B622B8C2B7B
:104DF000B62BE02B0A2C342C5E2C6CE0861691042A
:104E000008F068CFF401E65FF84DE501CC0FDD1F37
:104E10000C949D31162740276A279427BE27E82740
:104E200012283C2866289028BA28E428FE01EC5D68
:104E3000F84E6591749190E080E00E9465309B018E
:104E4000AC01C701B6010E94173187FD43CFFE01B7
:104E5000EA5DF84E6591749190E080E00E946530C3
:104E60009B01AC01C701B6010E942A3087FF32CFF7
:104E7000B092BA01A092B901FE01E655F94E5ACF9F
:104E8000FE01E25DF94E6591749190E080E00E9430
:104E900065309B01AC01C701B6010E94173187FD47
:104EA00019CFFE01E05DF94E6591749190E080E0CC
:104EB0000E9465309B01AC01C701B6010E942A30F7
:104EC00087FF08CFB092BA01A092B901FE01EC545D
:104ED000FA4E30CFFE01E85CFA4E6591749190E095
:104EE00080E00E9465309B01AC01C701B6010E94C1
:104EF000173187FDEFCEFE01E65CFA4E65917491A5
:104F000090E080E00E9465309B01AC01C701B601D2
:104F10000E942A3087FFDECEB092BA01A092B9017A
:104F2000FE01E254FB4E06CFFE01EE5BFB4E6591A7
:104F3000749190E080E00E9465309B01AC01C70154
:104F4000B6010E94173187FDC5CEFE01EC5BFB4E1A
:104F50006591749190E080E00E9465309B01AC0106
:104F6000C701B6010E942A3087FFB4CEB092BA01C1
:104F7000A092B901FE01E853FC4EDCCEFE01E45BD9
:104F8000FC4E6591749190E080E00E9465309B0139
:104F9000AC01C701B6010E94173187FD9BCEFE010F
:104FA000E25BFC4E6591749190E080E00E94653078
:104FB0009B01AC01C701B6010E942A3087FF8ACE4F
:104FC000B092BA01A092B901FE01EE52FD4EB2CEEE
:104FD000FE01EA5AFD4E6591749190E080E00E94D6
:104FE00065309B01AC01C701B6010E94173187FDF6
:104FF00071CEFE01E85AFD4E6591749190E080E01B
:105000000E9465309B01AC01C701B6010E942A30A5
:1050100087FF60CEB092BA01A092B901FE01E452BE
:10502000FE4E88CEFE01E05AFE4E6591749190E0EE
:1050300080E00E9465309B01AC01C701B6010E946F
:10504000173187FD47CEFE01EE59FE4E65917491F2
:1050500090E080E00E9465309B01AC01C701B60181
:105060000E942A3087FF36CEB092BA01A092B901D1
:10507000FE01EA51FF4E5ECEFE01E659FF4E6591FC
:10508000749190E080E00E9465309B01AC01C70103
:10509000B6010E94173187FD1DCEFE01E459FF4E77
:1050A0006591749190E080E00E9465309B01AC01B5
:1050B000C701B6010E942A3087FF0CCEB092BA0118
:1050C000A092B901FE01E051F04F34CEFE01EC5840
:1050D000F04F6591749190E080E00E9465309B01F3
:1050E000AC01C701B6010E94173187FDF3CDFE0167
:1050F000EA58F04F6591749190E080E00E9465302D
:105100009B01AC01C701B6010E942A3087FFE2CDA6
:10511000B092BA01A092B901FE01E650F14F0ACE59
:10512000FE01E258F14F6591749190E080E00E9499
:1051300065309B01AC01C701B6010E94173187FDA4
:10514000C9CDFE01E058F14F6591749190E080E087
:105150000E9465309B01AC01C701B6010E942A3054
:1051600087FFB8CDB092BA01A092B901FE01EC5F01
:10517000F14FE0CDFE01E857F24F6591749190E058
:1051800080E00E9465309B01AC01C701B6010E941E
:10519000173187FD9FCDFE01E657F24F659174915F
:1051A00090E080E00E9465309B01AC01C701B60130
:1051B0000E942A3087FF8ECDB092BA01A092B90129
:1051C000FE01E25FF24FB6CDFE01EE56F34F659160
:1051D000749190E080E00E9465309B01AC01C701B2
:1051E000B6010E94173187FD75CDFE01EC56F34FD5
:1051F0006591749190E080E00E9465309B01AC0164
:10520000C701B6010E942A3087FF64CDB092BA016F
:10521000A092B901FE01E85EF34F8CCD8CE08816B8
:10522000910408F057CDF401E55EF64DE501CC0F91
:10523000DD1F0C949D31272951297B29A529CF29D0
:10524000F929232A4D2A772ABA26A12ACB2AFE0138
:10525000EE5AF44D6591749190E080E00E946530C3
:105260009B01AC01C701B6010E94173187FD32CD09
:10527000FE01EC5AF44D6591749190E080E00E943B
:1052800065309B01AC01C701B6010E942A3087FF3F
:1052900021CDB092BA01A092B901FE01E852F54DBC
:1052A00049CDFE01E45AF54D6591749190E080E09E
:1052B0000E9465309B01AC01C701B6010E94173105
:1052C00087FD08CDFE01E25AF54D6591749190E09D
:1052D00080E00E9465309B01AC01C701B6010E94CD
:1052E0002A3087FFF7CCB092BA01A092B901FE0133
:1052F000EE51F64D1FCDFE01EA59F64D65917491C0
:1053000090E080E00E9465309B01AC01C701B601CE
:105310000E94173187FDDECCFE01E859F64D6591FC
:10532000749190E080E00E9465309B01AC01C70160
:10533000B6010E942A3087FFCDCCB092BA01A0926C
:10534000B901FE01E451F74DF5CCFE01E059F74DEE
:105350006591749190E080E00E9465309B01AC0102
:10536000C701B6010E94173187FDB4CCFE01EE588B
:10537000F74D6591749190E080E00E9465309B014B
:10538000AC01C701B6010E942A3087FFA3CCB092BE
:10539000BA01A092B901FE01EA50F84DCBCCFE0152
:1053A000E658F84D6591749190E080E00E94653078
:1053B0009B01AC01C701B6010E94173187FD8ACC61
:1053C000FE01E458F84D6591749190E080E00E94F0
:1053D00065309B01AC01C701B6010E942A3087FFEE
:1053E00079CCB092BA01A092B901FE01E050F94D1A
:1053F000A1CCFE01EC57F94D6591749190E080E0ED
:105400000E9465309B01AC01C701B6010E941731B3
:1054100087FD60CCFE01EA57F94D6591749190E0EB
:1054200080E00E9465309B01AC01C701B6010E947B
:105430002A3087FF4FCCB092BA01A092B901FE0189
:10544000E65FF94D77CCFE01E257FA4D6591749114
:1054500090E080E00E9465309B01AC01C701B6017D
:105460000E94173187FD36CCFE01E057FA4D659159
:10547000749190E080E00E9465309B01AC01C7010F
:10548000B6010E942A3087FF25CCB092BA01A092C3
:10549000B901FE01EC5EFA4D4DCCFE01E856FB4D24
:1054A0006591749190E080E00E9465309B01AC01B1
:1054B000C701B6010E94173187FD0CCCFE01E656EC
:1054C000FB4D6591749190E080E00E9465309B01F6
:1054D000AC01C701B6010E942A3087FFFBCBB09216
:1054E000BA01A092B901FE01E25EFB4D23CCFE01A0
:1054F000EE55FC4D6591749190E080E00E9465301E
:105500009B01AC01C701B6010E94173187FDE2CBB8
:10551000FE01EC55FC4D6591749190E080E00E9495
:1055200065309B01AC01C701B6010E942A3087FF9C
:10553000D1CBB092BA01A092B901FE01E85DFC4D59
:10554000F9CBFE01E25CF24D6591749190E080E050
:105550000E9465309B01AC01C701B6010E94173162
:1055600087FDB8CBFE01E05CF24D6591749190E04F
:1055700080E00E9465309B01AC01C701B6010E942A
:105580002A3087FFA7CBB092BA01A092B901FE01E1
:10559000EC53F34DCFCBFE01E85BF34D6591749175
:1055A00090E080E00E9465309B01AC01C701B6012C
:1055B0000E94173187FD8ECBFE01E65BF34D6591AE
:1055C000749190E080E00E9465309B01AC01C701BE
:1055D000B6010E942A3087FF7DCBB092BA01A0921B
:1055E000B901FE01E253F44DA5CB9CE0891691046C
:1055F00008F070CBF401EE5FF44DE501CC0FDD1F38
:105600000C949D310E2B382B622B8C2BB62BE02B60
:105610000A2C342C5E2C882CB22CDC2CFE01E65398
:10562000F04E6591749190E080E00E9465309B019E
:10563000AC01C701B6010E94173187FD4BCBFE01BB
:10564000E453F04E6591749190E080E00E946530E3
:105650009B01AC01C701B6010E942A3087FF3ACBFB
:10566000B092BA01A092B901FE01E05BF04E62CBAC
:10567000FE01EC52F14E6591749190E080E00E9441
:1056800065309B01AC01C701B6010E94173187FD4F
:1056900021CBFE01EA52F14E6591749190E080E0D9
:1056A0000E9465309B01AC01C701B6010E942A30FF
:1056B00087FF10CBB092BA01A092B901FE01E65A61
:1056C000F14E38CBFE01E252F24E6591749190E0BA
:1056D00080E00E9465309B01AC01C701B6010E94C9
:1056E000173187FDF7CAFE01E052F24E65917491C1
:1056F00090E080E00E9465309B01AC01C701B601DB
:105700000E942A3087FFE6CAB092BA01A092B9017E
:10571000FE01EC59F24E0ECBFE01E851F34E6591BD
:10572000749190E080E00E9465309B01AC01C7015C
:10573000B6010E94173187FDCDCAFE01E651F34E36
:105740006591749190E080E00E9465309B01AC010E
:10575000C701B6010E942A3087FFBCCAB092BA01C5
:10576000A092B901FE01E259F34EE4CAFE01EE50E7
:10577000F44E6591749190E080E00E9465309B0149
:10578000AC01C701B6010E94173187FDA3CAFE0113
:10579000EC50F44E6591749190E080E00E94653089
:1057A0009B01AC01C701B6010E942A3087FF92CA53
:1057B000B092BA01A092B901FE01E858F44EBACAFB
:1057C000FE01E450F54E6591749190E080E00E94F6
:1057D00065309B01AC01C701B6010E94173187FDFE
:1057E00079CAFE01E250F54E6591749190E080E037
:1057F0000E9465309B01AC01C701B6010E942A30AE
:1058000087FF68CAB092BA01A092B901FE01EE57B3
:10581000F54E90CAFE01EA5FF54E6591749190E0F5
:1058200080E00E9465309B01AC01C701B6010E9477
:10583000173187FD4FCAFE01E85FF54E65917491FF
:1058400090E080E00E9465309B01AC01C701B60189
:105850000E942A3087FF3ECAB092BA01A092B901D5
:10586000FE01E457F64E66CAFE01E05FF64E659112
:10587000749190E080E00E9465309B01AC01C7010B
:10588000B6010E94173187FD25CAFE01EE5EF64E75
:105890006591749190E080E00E9465309B01AC01BD
:1058A000C701B6010E942A3087FF14CAB092BA011C
:1058B000A092B901FE01EA56F74E3CCAFE01E65E2F
:1058C000F74E6591749190E080E00E9465309B01F5
:1058D000AC01C701B6010E94173187FDFBC9FE016B
:1058E000E45EF74E6591749190E080E00E9465302F
:1058F0009B01AC01C701B6010E942A3087FFEAC9AB
:10590000B092BA01A092B901FE01E056F84E12CA57
:10591000FE01E455FD4D6591749190E080E00E9498
:1059200065309B01AC01C701B6010E94173187FDAC
:10593000D1C9FE01E255FD4D6591749190E080E082
:105940000E9465309B01AC01C701B6010E942A305C
:1059500087FFC0C9B092BA01A092B901FE01EE5C06
:10596000FD4DE8C9FE01EA54FE4D6591749190E049
:1059700080E00E9465309B01AC01C701B6010E9426
:10598000173187FDA7C9FE01E854FE4D659174915A
:1059900090E080E00E9465309B01AC01C701B60138
:1059A0000E942A3087FF96C9B092BA01A092B9012D
:1059B000FE01E45CFE4DBEC9FE01E054FF4D659161
:1059C000749190E080E00E9465309B01AC01C701BA
:1059D000B6010E94173187FD7DC9FE01EE53FF4DD0
:1059E0006591749190E080E00E9465309B01AC016C
:1059F000C701B6010E942A3087FF6CC9B092BA0174
:105A0000A092B901FE01EA5BFF4D94C96CE08616D5
:105A1000910410F00C946A26F401EC5EF24DE5015D
:105A2000CC0FDD1F0C949D31202D4F2D7E2DAD2DE3
:105A3000DC2D0B2E3A2E692E982EC72EF62E252FF2
:105A4000FE01E456F44F6591749190E080E00E946D
:105A500065309B01AC01C701B6010E94173187FF79
:105A600002C00C946A26FE01E256F44F65917491CF
:105A700090E080E00E9465309B01AC01C701B60157
:105A80000E942A3087FD02C00C946A26B092BA01A7
:105A9000A092B901FE01EE5DF44F0C949A26FE012E
:105AA000EA55F54F6591749190E080E00E94653071
:105AB0009B01AC01C701B6010E94173187FF02C0EC
:105AC0000C946A26FE01E855F54F6591749190E0BB
:105AD00080E00E9465309B01AC01C701B6010E94C5
